{
  "_format": "hh-sol-artifact-1",
  "contractName": "Lock",
  "sourceName": "contracts/Lock.sol",
  "abi": [
    {
      "inputs": [],
      "stateMutability": "nonpayable",
      "type": "constructor"
    },
    {
      "inputs": [
        {
          "internalType": "address",
          "name": "sender",
          "type": "address"
        },
        {
          "internalType": "uint256",
          "name": "tokenId",
          "type": "uint256"
        },
        {
          "internalType": "address",
          "name": "owner",
          "type": "address"
        }
      ],
      "name": "ERC721IncorrectOwner",
      "type": "error"
    },
    {
      "inputs": [
        {
          "internalType": "address",
          "name": "operator",
          "type": "address"
        },
        {
          "internalType": "uint256",
          "name": "tokenId",
          "type": "uint256"
        }
      ],
      "name": "ERC721InsufficientApproval",
      "type": "error"
    },
    {
      "inputs": [
        {
          "internalType": "address",
          "name": "approver",
          "type": "address"
        }
      ],
      "name": "ERC721InvalidApprover",
      "type": "error"
    },
    {
      "inputs": [
        {
          "internalType": "address",
          "name": "operator",
          "type": "address"
        }
      ],
      "name": "ERC721InvalidOperator",
      "type": "error"
    },
    {
      "inputs": [
        {
          "internalType": "address",
          "name": "owner",
          "type": "address"
        }
      ],
      "name": "ERC721InvalidOwner",
      "type": "error"
    },
    {
      "inputs": [
        {
          "internalType": "address",
          "name": "receiver",
          "type": "address"
        }
      ],
      "name": "ERC721InvalidReceiver",
      "type": "error"
    },
    {
      "inputs": [
        {
          "internalType": "address",
          "name": "sender",
          "type": "address"
        }
      ],
      "name": "ERC721InvalidSender",
      "type": "error"
    },
    {
      "inputs": [
        {
          "internalType": "uint256",
          "name": "tokenId",
          "type": "uint256"
        }
      ],
      "name": "ERC721NonexistentToken",
      "type": "error"
    },
    {
      "inputs": [
        {
          "internalType": "address",
          "name": "owner",
          "type": "address"
        }
      ],
      "name": "OwnableInvalidOwner",
      "type": "error"
    },
    {
      "inputs": [
        {
          "internalType": "address",
          "name": "account",
          "type": "address"
        }
      ],
      "name": "OwnableUnauthorizedAccount",
      "type": "error"
    },
    {
      "anonymous": false,
      "inputs": [
        {
          "indexed": true,
          "internalType": "address",
          "name": "owner",
          "type": "address"
        },
        {
          "indexed": true,
          "internalType": "address",
          "name": "approved",
          "type": "address"
        },
        {
          "indexed": true,
          "internalType": "uint256",
          "name": "tokenId",
          "type": "uint256"
        }
      ],
      "name": "Approval",
      "type": "event"
    },
    {
      "anonymous": false,
      "inputs": [
        {
          "indexed": true,
          "internalType": "address",
          "name": "owner",
          "type": "address"
        },
        {
          "indexed": true,
          "internalType": "address",
          "name": "operator",
          "type": "address"
        },
        {
          "indexed": false,
          "internalType": "bool",
          "name": "approved",
          "type": "bool"
        }
      ],
      "name": "ApprovalForAll",
      "type": "event"
    },
    {
      "anonymous": false,
      "inputs": [
        {
          "indexed": true,
          "internalType": "uint256",
          "name": "attackerId",
          "type": "uint256"
        },
        {
          "indexed": true,
          "internalType": "uint256",
          "name": "defenderId",
          "type": "uint256"
        },
        {
          "indexed": false,
          "internalType": "uint256",
          "name": "damage",
          "type": "uint256"
        }
      ],
      "name": "Attack",
      "type": "event"
    },
    {
      "anonymous": false,
      "inputs": [
        {
          "indexed": false,
          "internalType": "uint256",
          "name": "_fromTokenId",
          "type": "uint256"
        },
        {
          "indexed": false,
          "internalType": "uint256",
          "name": "_toTokenId",
          "type": "uint256"
        }
      ],
      "name": "BatchMetadataUpdate",
      "type": "event"
    },
    {
      "anonymous": false,
      "inputs": [
        {
          "indexed": true,
          "internalType": "uint256",
          "name": "winnerId",
          "type": "uint256"
        },
        {
          "indexed": true,
          "internalType": "uint256",
          "name": "loserId",
          "type": "uint256"
        },
        {
          "indexed": false,
          "internalType": "uint256",
          "name": "winnerNewHealth",
          "type": "uint256"
        },
        {
          "indexed": false,
          "internalType": "uint256",
          "name": "loserNewHealth",
          "type": "uint256"
        }
      ],
      "name": "BattleResult",
      "type": "event"
    },
    {
      "anonymous": false,
      "inputs": [
        {
          "indexed": false,
          "internalType": "uint256",
          "name": "_tokenId",
          "type": "uint256"
        }
      ],
      "name": "MetadataUpdate",
      "type": "event"
    },
    {
      "anonymous": false,
      "inputs": [
        {
          "indexed": true,
          "internalType": "uint256",
          "name": "monsterId",
          "type": "uint256"
        },
        {
          "indexed": false,
          "internalType": "address",
          "name": "owner",
          "type": "address"
        }
      ],
      "name": "MonsterCreated",
      "type": "event"
    },
    {
      "anonymous": false,
      "inputs": [
        {
          "indexed": true,
          "internalType": "address",
          "name": "previousOwner",
          "type": "address"
        },
        {
          "indexed": true,
          "internalType": "address",
          "name": "newOwner",
          "type": "address"
        }
      ],
      "name": "OwnershipTransferred",
      "type": "event"
    },
    {
      "anonymous": false,
      "inputs": [
        {
          "indexed": true,
          "internalType": "address",
          "name": "from",
          "type": "address"
        },
        {
          "indexed": true,
          "internalType": "address",
          "name": "to",
          "type": "address"
        },
        {
          "indexed": true,
          "internalType": "uint256",
          "name": "tokenId",
          "type": "uint256"
        }
      ],
      "name": "Transfer",
      "type": "event"
    },
    {
      "inputs": [
        {
          "internalType": "address",
          "name": "to",
          "type": "address"
        },
        {
          "internalType": "uint256",
          "name": "tokenId",
          "type": "uint256"
        }
      ],
      "name": "approve",
      "outputs": [],
      "stateMutability": "nonpayable",
      "type": "function"
    },
    {
      "inputs": [
        {
          "internalType": "uint256",
          "name": "attackerId",
          "type": "uint256"
        },
        {
          "internalType": "uint256",
          "name": "defenderId",
          "type": "uint256"
        }
      ],
      "name": "attackMonster",
      "outputs": [],
      "stateMutability": "nonpayable",
      "type": "function"
    },
    {
      "inputs": [
        {
          "internalType": "address",
          "name": "owner",
          "type": "address"
        }
      ],
      "name": "balanceOf",
      "outputs": [
        {
          "internalType": "uint256",
          "name": "",
          "type": "uint256"
        }
      ],
      "stateMutability": "view",
      "type": "function"
    },
    {
      "inputs": [
        {
          "internalType": "uint256",
          "name": "health",
          "type": "uint256"
        },
        {
          "internalType": "uint256",
          "name": "mana",
          "type": "uint256"
        },
        {
          "internalType": "uint256",
          "name": "attack",
          "type": "uint256"
        },
        {
          "internalType": "uint256",
          "name": "defense",
          "type": "uint256"
        },
        {
          "internalType": "uint256",
          "name": "speed",
          "type": "uint256"
        },
        {
          "internalType": "string",
          "name": "uri",
          "type": "string"
        }
      ],
      "name": "createMonster",
      "outputs": [],
      "stateMutability": "nonpayable",
      "type": "function"
    },
    {
      "inputs": [
        {
          "internalType": "uint256",
          "name": "tokenId",
          "type": "uint256"
        }
      ],
      "name": "getApproved",
      "outputs": [
        {
          "internalType": "address",
          "name": "",
          "type": "address"
        }
      ],
      "stateMutability": "view",
      "type": "function"
    },
    {
      "inputs": [
        {
          "internalType": "uint256",
          "name": "monsterId",
          "type": "uint256"
        }
      ],
      "name": "getMonster",
      "outputs": [
        {
          "components": [
            {
              "internalType": "uint256",
              "name": "id",
              "type": "uint256"
            },
            {
              "internalType": "uint256",
              "name": "health",
              "type": "uint256"
            },
            {
              "internalType": "uint256",
              "name": "mana",
              "type": "uint256"
            },
            {
              "internalType": "uint256",
              "name": "attack",
              "type": "uint256"
            },
            {
              "internalType": "uint256",
              "name": "defense",
              "type": "uint256"
            },
            {
              "internalType": "uint256",
              "name": "speed",
              "type": "uint256"
            },
            {
              "internalType": "uint256",
              "name": "level",
              "type": "uint256"
            },
            {
              "internalType": "uint256",
              "name": "experience",
              "type": "uint256"
            },
            {
              "internalType": "string",
              "name": "uri",
              "type": "string"
            }
          ],
          "internalType": "struct Lock.Monster",
          "name": "",
          "type": "tuple"
        }
      ],
      "stateMutability": "view",
      "type": "function"
    },
    {
      "inputs": [
        {
          "internalType": "address",
          "name": "owner",
          "type": "address"
        },
        {
          "internalType": "address",
          "name": "operator",
          "type": "address"
        }
      ],
      "name": "isApprovedForAll",
      "outputs": [
        {
          "internalType": "bool",
          "name": "",
          "type": "bool"
        }
      ],
      "stateMutability": "view",
      "type": "function"
    },
    {
      "inputs": [
        {
          "internalType": "uint256",
          "name": "monsterId",
          "type": "uint256"
        }
      ],
      "name": "levelUp",
      "outputs": [],
      "stateMutability": "nonpayable",
      "type": "function"
    },
    {
      "inputs": [
        {
          "internalType": "uint256",
          "name": "",
          "type": "uint256"
        }
      ],
      "name": "monsters",
      "outputs": [
        {
          "internalType": "uint256",
          "name": "id",
          "type": "uint256"
        },
        {
          "internalType": "uint256",
          "name": "health",
          "type": "uint256"
        },
        {
          "internalType": "uint256",
          "name": "mana",
          "type": "uint256"
        },
        {
          "internalType": "uint256",
          "name": "attack",
          "type": "uint256"
        },
        {
          "internalType": "uint256",
          "name": "defense",
          "type": "uint256"
        },
        {
          "internalType": "uint256",
          "name": "speed",
          "type": "uint256"
        },
        {
          "internalType": "uint256",
          "name": "level",
          "type": "uint256"
        },
        {
          "internalType": "uint256",
          "name": "experience",
          "type": "uint256"
        },
        {
          "internalType": "string",
          "name": "uri",
          "type": "string"
        }
      ],
      "stateMutability": "view",
      "type": "function"
    },
    {
      "inputs": [],
      "name": "name",
      "outputs": [
        {
          "internalType": "string",
          "name": "",
          "type": "string"
        }
      ],
      "stateMutability": "view",
      "type": "function"
    },
    {
      "inputs": [],
      "name": "owner",
      "outputs": [
        {
          "internalType": "address",
          "name": "",
          "type": "address"
        }
      ],
      "stateMutability": "view",
      "type": "function"
    },
    {
      "inputs": [
        {
          "internalType": "uint256",
          "name": "tokenId",
          "type": "uint256"
        }
      ],
      "name": "ownerOf",
      "outputs": [
        {
          "internalType": "address",
          "name": "",
          "type": "address"
        }
      ],
      "stateMutability": "view",
      "type": "function"
    },
    {
      "inputs": [],
      "name": "renounceOwnership",
      "outputs": [],
      "stateMutability": "nonpayable",
      "type": "function"
    },
    {
      "inputs": [
        {
          "internalType": "address",
          "name": "from",
          "type": "address"
        },
        {
          "internalType": "address",
          "name": "to",
          "type": "address"
        },
        {
          "internalType": "uint256",
          "name": "tokenId",
          "type": "uint256"
        }
      ],
      "name": "safeTransferFrom",
      "outputs": [],
      "stateMutability": "nonpayable",
      "type": "function"
    },
    {
      "inputs": [
        {
          "internalType": "address",
          "name": "from",
          "type": "address"
        },
        {
          "internalType": "address",
          "name": "to",
          "type": "address"
        },
        {
          "internalType": "uint256",
          "name": "tokenId",
          "type": "uint256"
        },
        {
          "internalType": "bytes",
          "name": "data",
          "type": "bytes"
        }
      ],
      "name": "safeTransferFrom",
      "outputs": [],
      "stateMutability": "nonpayable",
      "type": "function"
    },
    {
      "inputs": [
        {
          "internalType": "address",
          "name": "operator",
          "type": "address"
        },
        {
          "internalType": "bool",
          "name": "approved",
          "type": "bool"
        }
      ],
      "name": "setApprovalForAll",
      "outputs": [],
      "stateMutability": "nonpayable",
      "type": "function"
    },
    {
      "inputs": [
        {
          "internalType": "bytes4",
          "name": "interfaceId",
          "type": "bytes4"
        }
      ],
      "name": "supportsInterface",
      "outputs": [
        {
          "internalType": "bool",
          "name": "",
          "type": "bool"
        }
      ],
      "stateMutability": "view",
      "type": "function"
    },
    {
      "inputs": [],
      "name": "symbol",
      "outputs": [
        {
          "internalType": "string",
          "name": "",
          "type": "string"
        }
      ],
      "stateMutability": "view",
      "type": "function"
    },
    {
      "inputs": [
        {
          "internalType": "uint256",
          "name": "tokenId",
          "type": "uint256"
        }
      ],
      "name": "tokenURI",
      "outputs": [
        {
          "internalType": "string",
          "name": "",
          "type": "string"
        }
      ],
      "stateMutability": "view",
      "type": "function"
    },
    {
      "inputs": [],
      "name": "totalSupply",
      "outputs": [
        {
          "internalType": "uint256",
          "name": "",
          "type": "uint256"
        }
      ],
      "stateMutability": "view",
      "type": "function"
    },
    {
      "inputs": [
        {
          "internalType": "address",
          "name": "from",
          "type": "address"
        },
        {
          "internalType": "address",
          "name": "to",
          "type": "address"
        },
        {
          "internalType": "uint256",
          "name": "tokenId",
          "type": "uint256"
        }
      ],
      "name": "transferFrom",
      "outputs": [],
      "stateMutability": "nonpayable",
      "type": "function"
    },
    {
      "inputs": [
        {
          "internalType": "address",
          "name": "newOwner",
          "type": "address"
        }
      ],
      "name": "transferOwnership",
      "outputs": [],
      "stateMutability": "nonpayable",
      "type": "function"
    }
  ],
  "bytecode": "0x60806040523480156200001157600080fd5b50336040518060400160405280600981526020017f43727970746f4d6f6e00000000000000000000000000000000000000000000008152506040518060400160405280600481526020017f434d4f4e00000000000000000000000000000000000000000000000000000000815250816000908162000090919062000472565b508060019081620000a2919062000472565b505050600073ffffffffffffffffffffffffffffffffffffffff168173ffffffffffffffffffffffffffffffffffffffff16036200011a5760006040517f1e4fbdf70000000000000000000000000000000000000000000000000000000081526004016200011191906200059e565b60405180910390fd5b6200012b816200013260201b60201c565b50620005bb565b6000600760009054906101000a900473ffffffffffffffffffffffffffffffffffffffff16905081600760006101000a81548173ffffffffffffffffffffffffffffffffffffffff021916908373ffffffffffffffffffffffffffffffffffffffff1602179055508173ffffffffffffffffffffffffffffffffffffffff168173ffffffffffffffffffffffffffffffffffffffff167f8be0079c531659141344cd1fd0a4f28419497f9722a3daafe3b4186f6b6457e060405160405180910390a35050565b600081519050919050565b7f4e487b7100000000000000000000000000000000000000000000000000000000600052604160045260246000fd5b7f4e487b7100000000000000000000000000000000000000000000000000000000600052602260045260246000fd5b600060028204905060018216806200027a57607f821691505b60208210810362000290576200028f62000232565b5b50919050565b60008190508160005260206000209050919050565b60006020601f8301049050919050565b600082821b905092915050565b600060088302620002fa7fffffffffffffffffffffffffffffffffffffffffffffffffffffffffffffffff82620002bb565b620003068683620002bb565b95508019841693508086168417925050509392505050565b6000819050919050565b6000819050919050565b6000620003536200034d62000347846200031e565b62000328565b6200031e565b9050919050565b6000819050919050565b6200036f8362000332565b620003876200037e826200035a565b848454620002c8565b825550505050565b600090565b6200039e6200038f565b620003ab81848462000364565b505050565b5b81811015620003d357620003c760008262000394565b600181019050620003b1565b5050565b601f8211156200042257620003ec8162000296565b620003f784620002ab565b8101602085101562000407578190505b6200041f6200041685620002ab565b830182620003b0565b50505b505050565b600082821c905092915050565b6000620004476000198460080262000427565b1980831691505092915050565b600062000462838362000434565b9150826002028217905092915050565b6200047d82620001f8565b67ffffffffffffffff81111562000499576200049862000203565b5b620004a5825462000261565b620004b2828285620003d7565b600060209050601f831160018114620004ea5760008415620004d5578287015190505b620004e1858262000454565b86555062000551565b601f198416620004fa8662000296565b60005b828110156200052457848901518255600182019150602085019450602081019050620004fd565b8683101562000544578489015162000540601f89168262000434565b8355505b6001600288020188555050505b505050505050565b600073ffffffffffffffffffffffffffffffffffffffff82169050919050565b6000620005868262000559565b9050919050565b620005988162000579565b82525050565b6000602082019050620005b560008301846200058d565b92915050565b6136a380620005cb6000396000f3fe608060405234801561001057600080fd5b50600436106101425760003560e01c8063715018a6116100b8578063b618fce21161007c578063b618fce214610361578063b88d4fde1461037d578063c0576b7314610399578063c87b56dd146103d1578063e985e9c514610401578063f2fde38b1461043157610142565b8063715018a6146102e35780638da5cb5b146102ed57806395d89b411461030b5780639764665d14610329578063a22cb4651461034557610142565b806318160ddd1161010a57806318160ddd146101fd57806323b872dd1461021b57806342842e0e1461023757806362fb6fe1146102535780636352211e1461028357806370a08231146102b357610142565b806301ffc9a71461014757806306fdde0314610177578063081812fc14610195578063095ea7b3146101c55780630ce90ec2146101e1575b600080fd5b610161600480360381019061015c9190612552565b61044d565b60405161016e919061259a565b60405180910390f35b61017f6104ae565b60405161018c9190612645565b60405180910390f35b6101af60048036038101906101aa919061269d565b610540565b6040516101bc919061270b565b60405180910390f35b6101df60048036038101906101da9190612752565b61055c565b005b6101fb60048036038101906101f6919061269d565b610572565b005b610205610721565b60405161021291906127a1565b60405180910390f35b610235600480360381019061023091906127bc565b61072e565b005b610251600480360381019061024c91906127bc565b610830565b005b61026d6004803603810190610268919061269d565b610850565b60405161027a919061292d565b60405180910390f35b61029d6004803603810190610298919061269d565b6109b6565b6040516102aa919061270b565b60405180910390f35b6102cd60048036038101906102c8919061294f565b6109c8565b6040516102da91906127a1565b60405180910390f35b6102eb610a82565b005b6102f5610a96565b604051610302919061270b565b60405180910390f35b610313610ac0565b6040516103209190612645565b60405180910390f35b610343600480360381019061033e919061297c565b610b52565b005b61035f600480360381019061035a91906129e8565b610eff565b005b61037b60048036038101906103769190612b5d565b610f15565b005b61039760048036038101906103929190612ca7565b611052565b005b6103b360048036038101906103ae919061269d565b61106f565b6040516103c899989796959493929190612d2a565b60405180910390f35b6103eb60048036038101906103e6919061269d565b611155565b6040516103f89190612645565b60405180910390f35b61041b60048036038101906104169190612dbe565b611268565b604051610428919061259a565b60405180910390f35b61044b6004803603810190610446919061294f565b6112fc565b005b6000634906490660e01b7bffffffffffffffffffffffffffffffffffffffffffffffffffffffff1916827bffffffffffffffffffffffffffffffffffffffffffffffffffffffff191614806104a757506104a682611382565b5b9050919050565b6060600080546104bd90612e2d565b80601f01602080910402602001604051908101604052809291908181526020018280546104e990612e2d565b80156105365780601f1061050b57610100808354040283529160200191610536565b820191906000526020600020905b81548152906001019060200180831161051957829003601f168201915b5050505050905090565b600061054b82611464565b50610555826114ec565b9050919050565b61056e8282610569611529565b611531565b5050565b3373ffffffffffffffffffffffffffffffffffffffff16610592826109b6565b73ffffffffffffffffffffffffffffffffffffffff16146105e8576040517f08c379a00000000000000000000000000000000000000000000000000000000081526004016105df90612ed0565b60405180910390fd5b6000600882815481106105fe576105fd612ef0565b5b906000526020600020906009020190506000606482600601546106219190612f4e565b9050808260070154101561066a576040517f08c379a000000000000000000000000000000000000000000000000000000000815260040161066190613002565b60405180910390fd5b600182600601600082825461067f9190613022565b92505081905550600a82600101600082825461069b9190613022565b9250508190555060058260020160008282546106b79190613022565b9250508190555060058260030160008282546106d39190613022565b9250508190555060058260040160008282546106ef9190613022565b92505081905550600182600501600082825461070b9190613022565b9250508190555060008260070181905550505050565b6000600880549050905090565b600073ffffffffffffffffffffffffffffffffffffffff168273ffffffffffffffffffffffffffffffffffffffff16036107a05760006040517f64a0ae92000000000000000000000000000000000000000000000000000000008152600401610797919061270b565b60405180910390fd5b60006107b483836107af611529565b611543565b90508373ffffffffffffffffffffffffffffffffffffffff168173ffffffffffffffffffffffffffffffffffffffff161461082a578382826040517f64283d7b00000000000000000000000000000000000000000000000000000000815260040161082193929190613056565b60405180910390fd5b50505050565b61084b83838360405180602001604052806000815250611052565b505050565b61085861243d565b600880549050821061089f576040517f08c379a0000000000000000000000000000000000000000000000000000000008152600401610896906130d9565b60405180910390fd5b600882815481106108b3576108b2612ef0565b5b906000526020600020906009020160405180610120016040529081600082015481526020016001820154815260200160028201548152602001600382015481526020016004820154815260200160058201548152602001600682015481526020016007820154815260200160088201805461092d90612e2d565b80601f016020809104026020016040519081016040528092919081815260200182805461095990612e2d565b80156109a65780601f1061097b576101008083540402835291602001916109a6565b820191906000526020600020905b81548152906001019060200180831161098957829003601f168201915b5050505050815250509050919050565b60006109c182611464565b9050919050565b60008073ffffffffffffffffffffffffffffffffffffffff168273ffffffffffffffffffffffffffffffffffffffff1603610a3b5760006040517f89c62b64000000000000000000000000000000000000000000000000000000008152600401610a32919061270b565b60405180910390fd5b600360008373ffffffffffffffffffffffffffffffffffffffff1673ffffffffffffffffffffffffffffffffffffffff168152602001908152602001600020549050919050565b610a8a61175d565b610a9460006117e4565b565b6000600760009054906101000a900473ffffffffffffffffffffffffffffffffffffffff16905090565b606060018054610acf90612e2d565b80601f0160208091040260200160405190810160405280929190818152602001828054610afb90612e2d565b8015610b485780601f10610b1d57610100808354040283529160200191610b48565b820191906000526020600020905b815481529060010190602001808311610b2b57829003601f168201915b5050505050905090565b3373ffffffffffffffffffffffffffffffffffffffff16610b72836109b6565b73ffffffffffffffffffffffffffffffffffffffff1614610bc8576040517f08c379a0000000000000000000000000000000000000000000000000000000008152600401610bbf9061316b565b60405180910390fd5b600073ffffffffffffffffffffffffffffffffffffffff16610be9826109b6565b73ffffffffffffffffffffffffffffffffffffffff1603610c3f576040517f08c379a0000000000000000000000000000000000000000000000000000000008152600401610c36906131d7565b60405180910390fd5b600060088381548110610c5557610c54612ef0565b5b90600052602060002090600902019050600060088381548110610c7b57610c7a612ef0565b5b90600052602060002090600902019050600060028360030154610c9e9190612f4e565b9050600082600401549050600081831115610db5578183610cbf91906131f7565b905080846001015411610cd3576000610ce4565b808460010154610ce391906131f7565b5b846001018190555085877f25c61ce5cfbf5b210a370cac456043df6044948ee7d9e9e772ce22d14d2cdf4983604051610d1d91906127a1565b60405180910390a36000846001015403610db057610d3a866118aa565b60088681548110610d4e57610d4d612ef0565b5b90600052602060002090600902016000808201600090556001820160009055600282016000905560038201600090556004820160009055600582016000905560068201600090556007820160009055600882016000610dad9190612489565b50505b610eb3565b8282610dc191906131f7565b905080856001015411610dd5576000610de6565b808560010154610de591906131f7565b5b856001018190555086867f25c61ce5cfbf5b210a370cac456043df6044948ee7d9e9e772ce22d14d2cdf4983604051610e1f91906127a1565b60405180910390a36000856001015403610eb257610e3c876118aa565b60088781548110610e5057610e4f612ef0565b5b90600052602060002090600902016000808201600090556001820160009055600282016000905560038201600090556004820160009055600582016000905560068201600090556007820160009055600882016000610eaf9190612489565b50505b5b85877f78d72c60b0f38a9a8dac0805b805c5f038ede4b314e696b2caefc2161058ffa587600101548760010154604051610eee92919061322b565b60405180910390a350505050505050565b610f11610f0a611529565b8383611930565b5050565b610f1d61175d565b6000600880549050905060086040518061012001604052808381526020018981526020018881526020018781526020018681526020018581526020016001815260200160008152602001848152509080600181540180825580915050600190039060005260206000209060090201600090919091909150600082015181600001556020820151816001015560408201518160020155606082015181600301556080820151816004015560a0820151816005015560c0820151816006015560e08201518160070155610100820151816008019081610ffa9190613400565b5050506110073382611a9f565b6110118183611b98565b807faa413f381b0a68cad808ff9ac4bb394ca02008f65499457c28193f5180ffae5e33604051611041919061270b565b60405180910390a250505050505050565b61105d84848461072e565b61106984848484611bf4565b50505050565b6008818154811061107f57600080fd5b90600052602060002090600902016000915090508060000154908060010154908060020154908060030154908060040154908060050154908060060154908060070154908060080180546110d290612e2d565b80601f01602080910402602001604051908101604052809291908181526020018280546110fe90612e2d565b801561114b5780601f106111205761010080835404028352916020019161114b565b820191906000526020600020905b81548152906001019060200180831161112e57829003601f168201915b5050505050905089565b606061116082611464565b50600060066000848152602001908152602001600020805461118190612e2d565b80601f01602080910402602001604051908101604052809291908181526020018280546111ad90612e2d565b80156111fa5780601f106111cf576101008083540402835291602001916111fa565b820191906000526020600020905b8154815290600101906020018083116111dd57829003601f168201915b50505050509050600061120b611dab565b90506000815103611220578192505050611263565b60008251111561125557808260405160200161123d92919061350e565b60405160208183030381529060405292505050611263565b61125e84611dc2565b925050505b919050565b6000600560008473ffffffffffffffffffffffffffffffffffffffff1673ffffffffffffffffffffffffffffffffffffffff16815260200190815260200160002060008373ffffffffffffffffffffffffffffffffffffffff1673ffffffffffffffffffffffffffffffffffffffff16815260200190815260200160002060009054906101000a900460ff16905092915050565b61130461175d565b600073ffffffffffffffffffffffffffffffffffffffff168173ffffffffffffffffffffffffffffffffffffffff16036113765760006040517f1e4fbdf700000000000000000000000000000000000000000000000000000000815260040161136d919061270b565b60405180910390fd5b61137f816117e4565b50565b60007f80ac58cd000000000000000000000000000000000000000000000000000000007bffffffffffffffffffffffffffffffffffffffffffffffffffffffff1916827bffffffffffffffffffffffffffffffffffffffffffffffffffffffff1916148061144d57507f5b5e139f000000000000000000000000000000000000000000000000000000007bffffffffffffffffffffffffffffffffffffffffffffffffffffffff1916827bffffffffffffffffffffffffffffffffffffffffffffffffffffffff1916145b8061145d575061145c82611e2b565b5b9050919050565b60008061147083611e95565b9050600073ffffffffffffffffffffffffffffffffffffffff168173ffffffffffffffffffffffffffffffffffffffff16036114e357826040517f7e2732890000000000000000000000000000000000000000000000000000000081526004016114da91906127a1565b60405180910390fd5b80915050919050565b60006004600083815260200190815260200160002060009054906101000a900473ffffffffffffffffffffffffffffffffffffffff169050919050565b600033905090565b61153e8383836001611ed2565b505050565b60008061154f84611e95565b9050600073ffffffffffffffffffffffffffffffffffffffff168373ffffffffffffffffffffffffffffffffffffffff161461159157611590818486612097565b5b600073ffffffffffffffffffffffffffffffffffffffff168173ffffffffffffffffffffffffffffffffffffffff1614611622576115d3600085600080611ed2565b6001600360008373ffffffffffffffffffffffffffffffffffffffff1673ffffffffffffffffffffffffffffffffffffffff168152602001908152602001600020600082825403925050819055505b600073ffffffffffffffffffffffffffffffffffffffff168573ffffffffffffffffffffffffffffffffffffffff16146116a5576001600360008773ffffffffffffffffffffffffffffffffffffffff1673ffffffffffffffffffffffffffffffffffffffff168152602001908152602001600020600082825401925050819055505b846002600086815260200190815260200160002060006101000a81548173ffffffffffffffffffffffffffffffffffffffff021916908373ffffffffffffffffffffffffffffffffffffffff160217905550838573ffffffffffffffffffffffffffffffffffffffff168273ffffffffffffffffffffffffffffffffffffffff167fddf252ad1be2c89b69c2b068fc378daa952ba7f163c4a11628f55a4df523b3ef60405160405180910390a4809150509392505050565b611765611529565b73ffffffffffffffffffffffffffffffffffffffff16611783610a96565b73ffffffffffffffffffffffffffffffffffffffff16146117e2576117a6611529565b6040517f118cdaa70000000000000000000000000000000000000000000000000000000081526004016117d9919061270b565b60405180910390fd5b565b6000600760009054906101000a900473ffffffffffffffffffffffffffffffffffffffff16905081600760006101000a81548173ffffffffffffffffffffffffffffffffffffffff021916908373ffffffffffffffffffffffffffffffffffffffff1602179055508173ffffffffffffffffffffffffffffffffffffffff168173ffffffffffffffffffffffffffffffffffffffff167f8be0079c531659141344cd1fd0a4f28419497f9722a3daafe3b4186f6b6457e060405160405180910390a35050565b60006118b96000836000611543565b9050600073ffffffffffffffffffffffffffffffffffffffff168173ffffffffffffffffffffffffffffffffffffffff160361192c57816040517f7e27328900000000000000000000000000000000000000000000000000000000815260040161192391906127a1565b60405180910390fd5b5050565b600073ffffffffffffffffffffffffffffffffffffffff168273ffffffffffffffffffffffffffffffffffffffff16036119a157816040517f5b08ba18000000000000000000000000000000000000000000000000000000008152600401611998919061270b565b60405180910390fd5b80600560008573ffffffffffffffffffffffffffffffffffffffff1673ffffffffffffffffffffffffffffffffffffffff16815260200190815260200160002060008473ffffffffffffffffffffffffffffffffffffffff1673ffffffffffffffffffffffffffffffffffffffff16815260200190815260200160002060006101000a81548160ff0219169083151502179055508173ffffffffffffffffffffffffffffffffffffffff168373ffffffffffffffffffffffffffffffffffffffff167f17307eab39ab6107e8899845ad3d59bd9653f200f220920489ca2b5937696c3183604051611a92919061259a565b60405180910390a3505050565b600073ffffffffffffffffffffffffffffffffffffffff168273ffffffffffffffffffffffffffffffffffffffff1603611b115760006040517f64a0ae92000000000000000000000000000000000000000000000000000000008152600401611b08919061270b565b60405180910390fd5b6000611b1f83836000611543565b9050600073ffffffffffffffffffffffffffffffffffffffff168173ffffffffffffffffffffffffffffffffffffffff1614611b935760006040517f73c6ac6e000000000000000000000000000000000000000000000000000000008152600401611b8a919061270b565b60405180910390fd5b505050565b80600660008481526020019081526020016000209081611bb89190613400565b507ff8e1a15aba9398e019f0b49df1a4fde98ee17ae345cb5f6b5e2c27f5033e8ce782604051611be891906127a1565b60405180910390a15050565b60008373ffffffffffffffffffffffffffffffffffffffff163b1115611da5578273ffffffffffffffffffffffffffffffffffffffff1663150b7a02611c38611529565b8685856040518563ffffffff1660e01b8152600401611c5a9493929190613587565b6020604051808303816000875af1925050508015611c9657506040513d601f19601f82011682018060405250810190611c9391906135e8565b60015b611d1a573d8060008114611cc6576040519150601f19603f3d011682016040523d82523d6000602084013e611ccb565b606091505b506000815103611d1257836040517f64a0ae92000000000000000000000000000000000000000000000000000000008152600401611d09919061270b565b60405180910390fd5b805181602001fd5b63150b7a0260e01b7bffffffffffffffffffffffffffffffffffffffffffffffffffffffff1916817bffffffffffffffffffffffffffffffffffffffffffffffffffffffff191614611da357836040517f64a0ae92000000000000000000000000000000000000000000000000000000008152600401611d9a919061270b565b60405180910390fd5b505b50505050565b606060405180602001604052806000815250905090565b6060611dcd82611464565b506000611dd8611dab565b90506000815111611df85760405180602001604052806000815250611e23565b80611e028461215b565b604051602001611e1392919061350e565b6040516020818303038152906040525b915050919050565b60007f01ffc9a7000000000000000000000000000000000000000000000000000000007bffffffffffffffffffffffffffffffffffffffffffffffffffffffff1916827bffffffffffffffffffffffffffffffffffffffffffffffffffffffff1916149050919050565b60006002600083815260200190815260200160002060009054906101000a900473ffffffffffffffffffffffffffffffffffffffff169050919050565b8080611f0b5750600073ffffffffffffffffffffffffffffffffffffffff168273ffffffffffffffffffffffffffffffffffffffff1614155b1561203f576000611f1b84611464565b9050600073ffffffffffffffffffffffffffffffffffffffff168373ffffffffffffffffffffffffffffffffffffffff1614158015611f8657508273ffffffffffffffffffffffffffffffffffffffff168173ffffffffffffffffffffffffffffffffffffffff1614155b8015611f995750611f978184611268565b155b15611fdb57826040517fa9fbf51f000000000000000000000000000000000000000000000000000000008152600401611fd2919061270b565b60405180910390fd5b811561203d57838573ffffffffffffffffffffffffffffffffffffffff168273ffffffffffffffffffffffffffffffffffffffff167f8c5be1e5ebec7d5bd14f71427d1e84f3dd0314c0f7b2291e5b200ac8c7c3b92560405160405180910390a45b505b836004600085815260200190815260200160002060006101000a81548173ffffffffffffffffffffffffffffffffffffffff021916908373ffffffffffffffffffffffffffffffffffffffff16021790555050505050565b6120a2838383612229565b61215657600073ffffffffffffffffffffffffffffffffffffffff168373ffffffffffffffffffffffffffffffffffffffff160361211757806040517f7e27328900000000000000000000000000000000000000000000000000000000815260040161210e91906127a1565b60405180910390fd5b81816040517f177e802f00000000000000000000000000000000000000000000000000000000815260040161214d929190613615565b60405180910390fd5b505050565b60606000600161216a846122ea565b01905060008167ffffffffffffffff81111561218957612188612a32565b5b6040519080825280601f01601f1916602001820160405280156121bb5781602001600182028036833780820191505090505b509050600082602001820190505b60011561221e578080600190039150507f3031323334353637383961626364656600000000000000000000000000000000600a86061a8153600a85816122125761221161363e565b5b049450600085036121c9575b819350505050919050565b60008073ffffffffffffffffffffffffffffffffffffffff168373ffffffffffffffffffffffffffffffffffffffff16141580156122e157508273ffffffffffffffffffffffffffffffffffffffff168473ffffffffffffffffffffffffffffffffffffffff1614806122a257506122a18484611268565b5b806122e057508273ffffffffffffffffffffffffffffffffffffffff166122c8836114ec565b73ffffffffffffffffffffffffffffffffffffffff16145b5b90509392505050565b600080600090507a184f03e93ff9f4daa797ed6e38ed64bf6a1f0100000000000000008310612348577a184f03e93ff9f4daa797ed6e38ed64bf6a1f010000000000000000838161233e5761233d61363e565b5b0492506040810190505b6d04ee2d6d415b85acef81000000008310612385576d04ee2d6d415b85acef8100000000838161237b5761237a61363e565b5b0492506020810190505b662386f26fc1000083106123b457662386f26fc1000083816123aa576123a961363e565b5b0492506010810190505b6305f5e10083106123dd576305f5e10083816123d3576123d261363e565b5b0492506008810190505b61271083106124025761271083816123f8576123f761363e565b5b0492506004810190505b60648310612425576064838161241b5761241a61363e565b5b0492506002810190505b600a8310612434576001810190505b80915050919050565b6040518061012001604052806000815260200160008152602001600081526020016000815260200160008152602001600081526020016000815260200160008152602001606081525090565b50805461249590612e2d565b6000825580601f106124a757506124c6565b601f0160209004906000526020600020908101906124c591906124c9565b5b50565b5b808211156124e25760008160009055506001016124ca565b5090565b6000604051905090565b600080fd5b600080fd5b60007fffffffff0000000000000000000000000000000000000000000000000000000082169050919050565b61252f816124fa565b811461253a57600080fd5b50565b60008135905061254c81612526565b92915050565b600060208284031215612568576125676124f0565b5b60006125768482850161253d565b91505092915050565b60008115159050919050565b6125948161257f565b82525050565b60006020820190506125af600083018461258b565b92915050565b600081519050919050565b600082825260208201905092915050565b60005b838110156125ef5780820151818401526020810190506125d4565b60008484015250505050565b6000601f19601f8301169050919050565b6000612617826125b5565b61262181856125c0565b93506126318185602086016125d1565b61263a816125fb565b840191505092915050565b6000602082019050818103600083015261265f818461260c565b905092915050565b6000819050919050565b61267a81612667565b811461268557600080fd5b50565b60008135905061269781612671565b92915050565b6000602082840312156126b3576126b26124f0565b5b60006126c184828501612688565b91505092915050565b600073ffffffffffffffffffffffffffffffffffffffff82169050919050565b60006126f5826126ca565b9050919050565b612705816126ea565b82525050565b600060208201905061272060008301846126fc565b92915050565b61272f816126ea565b811461273a57600080fd5b50565b60008135905061274c81612726565b92915050565b60008060408385031215612769576127686124f0565b5b60006127778582860161273d565b925050602061278885828601612688565b9150509250929050565b61279b81612667565b82525050565b60006020820190506127b66000830184612792565b92915050565b6000806000606084860312156127d5576127d46124f0565b5b60006127e38682870161273d565b93505060206127f48682870161273d565b925050604061280586828701612688565b9150509250925092565b61281881612667565b82525050565b600082825260208201905092915050565b600061283a826125b5565b612844818561281e565b93506128548185602086016125d1565b61285d816125fb565b840191505092915050565b600061012083016000830151612881600086018261280f565b506020830151612894602086018261280f565b5060408301516128a7604086018261280f565b5060608301516128ba606086018261280f565b5060808301516128cd608086018261280f565b5060a08301516128e060a086018261280f565b5060c08301516128f360c086018261280f565b5060e083015161290660e086018261280f565b50610100830151848203610100860152612920828261282f565b9150508091505092915050565b600060208201905081810360008301526129478184612868565b905092915050565b600060208284031215612965576129646124f0565b5b60006129738482850161273d565b91505092915050565b60008060408385031215612993576129926124f0565b5b60006129a185828601612688565b92505060206129b285828601612688565b9150509250929050565b6129c58161257f565b81146129d057600080fd5b50565b6000813590506129e2816129bc565b92915050565b600080604083850312156129ff576129fe6124f0565b5b6000612a0d8582860161273d565b9250506020612a1e858286016129d3565b9150509250929050565b600080fd5b600080fd5b7f4e487b7100000000000000000000000000000000000000000000000000000000600052604160045260246000fd5b612a6a826125fb565b810181811067ffffffffffffffff82111715612a8957612a88612a32565b5b80604052505050565b6000612a9c6124e6565b9050612aa88282612a61565b919050565b600067ffffffffffffffff821115612ac857612ac7612a32565b5b612ad1826125fb565b9050602081019050919050565b82818337600083830152505050565b6000612b00612afb84612aad565b612a92565b905082815260208101848484011115612b1c57612b1b612a2d565b5b612b27848285612ade565b509392505050565b600082601f830112612b4457612b43612a28565b5b8135612b54848260208601612aed565b91505092915050565b60008060008060008060c08789031215612b7a57612b796124f0565b5b6000612b8889828a01612688565b9650506020612b9989828a01612688565b9550506040612baa89828a01612688565b9450506060612bbb89828a01612688565b9350506080612bcc89828a01612688565b92505060a087013567ffffffffffffffff811115612bed57612bec6124f5565b5b612bf989828a01612b2f565b9150509295509295509295565b600067ffffffffffffffff821115612c2157612c20612a32565b5b612c2a826125fb565b9050602081019050919050565b6000612c4a612c4584612c06565b612a92565b905082815260208101848484011115612c6657612c65612a2d565b5b612c71848285612ade565b509392505050565b600082601f830112612c8e57612c8d612a28565b5b8135612c9e848260208601612c37565b91505092915050565b60008060008060808587031215612cc157612cc06124f0565b5b6000612ccf8782880161273d565b9450506020612ce08782880161273d565b9350506040612cf187828801612688565b925050606085013567ffffffffffffffff811115612d1257612d116124f5565b5b612d1e87828801612c79565b91505092959194509250565b600061012082019050612d40600083018c612792565b612d4d602083018b612792565b612d5a604083018a612792565b612d676060830189612792565b612d746080830188612792565b612d8160a0830187612792565b612d8e60c0830186612792565b612d9b60e0830185612792565b818103610100830152612dae818461260c565b90509a9950505050505050505050565b60008060408385031215612dd557612dd46124f0565b5b6000612de38582860161273d565b9250506020612df48582860161273d565b9150509250929050565b7f4e487b7100000000000000000000000000000000000000000000000000000000600052602260045260246000fd5b60006002820490506001821680612e4557607f821691505b602082108103612e5857612e57612dfe565b5b50919050565b7f596f75206d757374206f776e20746865206d6f6e7374657220746f206c65766560008201527f6c2069742075702e000000000000000000000000000000000000000000000000602082015250565b6000612eba6028836125c0565b9150612ec582612e5e565b604082019050919050565b60006020820190508181036000830152612ee981612ead565b9050919050565b7f4e487b7100000000000000000000000000000000000000000000000000000000600052603260045260246000fd5b7f4e487b7100000000000000000000000000000000000000000000000000000000600052601160045260246000fd5b6000612f5982612667565b9150612f6483612667565b9250828202612f7281612667565b91508282048414831517612f8957612f88612f1f565b5b5092915050565b7f4e6f7420656e6f75676820657870657269656e636520746f206c6576656c207560008201527f702e000000000000000000000000000000000000000000000000000000000000602082015250565b6000612fec6022836125c0565b9150612ff782612f90565b604082019050919050565b6000602082019050818103600083015261301b81612fdf565b9050919050565b600061302d82612667565b915061303883612667565b92508282019050808211156130505761304f612f1f565b5b92915050565b600060608201905061306b60008301866126fc565b6130786020830185612792565b61308560408301846126fc565b949350505050565b7f4d6f6e7374657220646f6573206e6f742065786973742e000000000000000000600082015250565b60006130c36017836125c0565b91506130ce8261308d565b602082019050919050565b600060208201905081810360008301526130f2816130b6565b9050919050565b7f596f75206d757374206f776e20746865206d6f6e7374657220746f20636f6d6d60008201527f616e642069742e00000000000000000000000000000000000000000000000000602082015250565b60006131556027836125c0565b9150613160826130f9565b604082019050919050565b6000602082019050818103600083015261318481613148565b9050919050565b7f446566656e646572206d7573742065786973742e000000000000000000000000600082015250565b60006131c16014836125c0565b91506131cc8261318b565b602082019050919050565b600060208201905081810360008301526131f0816131b4565b9050919050565b600061320282612667565b915061320d83612667565b925082820390508181111561322557613224612f1f565b5b92915050565b60006040820190506132406000830185612792565b61324d6020830184612792565b9392505050565b60008190508160005260206000209050919050565b60006020601f8301049050919050565b600082821b905092915050565b6000600883026132b67fffffffffffffffffffffffffffffffffffffffffffffffffffffffffffffffff82613279565b6132c08683613279565b95508019841693508086168417925050509392505050565b6000819050919050565b60006132fd6132f86132f384612667565b6132d8565b612667565b9050919050565b6000819050919050565b613317836132e2565b61332b61332382613304565b848454613286565b825550505050565b600090565b613340613333565b61334b81848461330e565b505050565b5b8181101561336f57613364600082613338565b600181019050613351565b5050565b601f8211156133b45761338581613254565b61338e84613269565b8101602085101561339d578190505b6133b16133a985613269565b830182613350565b50505b505050565b600082821c905092915050565b60006133d7600019846008026133b9565b1980831691505092915050565b60006133f083836133c6565b9150826002028217905092915050565b613409826125b5565b67ffffffffffffffff81111561342257613421612a32565b5b61342c8254612e2d565b613437828285613373565b600060209050601f83116001811461346a5760008415613458578287015190505b61346285826133e4565b8655506134ca565b601f19841661347886613254565b60005b828110156134a05784890151825560018201915060208501945060208101905061347b565b868310156134bd57848901516134b9601f8916826133c6565b8355505b6001600288020188555050505b505050505050565b600081905092915050565b60006134e8826125b5565b6134f281856134d2565b93506135028185602086016125d1565b80840191505092915050565b600061351a82856134dd565b915061352682846134dd565b91508190509392505050565b600081519050919050565b600082825260208201905092915050565b600061355982613532565b613563818561353d565b93506135738185602086016125d1565b61357c816125fb565b840191505092915050565b600060808201905061359c60008301876126fc565b6135a960208301866126fc565b6135b66040830185612792565b81810360608301526135c8818461354e565b905095945050505050565b6000815190506135e281612526565b92915050565b6000602082840312156135fe576135fd6124f0565b5b600061360c848285016135d3565b91505092915050565b600060408201905061362a60008301856126fc565b6136376020830184612792565b9392505050565b7f4e487b7100000000000000000000000000000000000000000000000000000000600052601260045260246000fdfea2646970667358221220da08acf43f5dc0c17e7f8027585c283e6ad549f87f11008c1ef5314455d6e90364736f6c63430008180033",
  "linkReferences": {},
  "deployedLinkReferences": {}
}