{
  "_format": "hh-sol-artifact-1",
  "contractName": "Lock",
  "sourceName": "contracts/Lock.sol",
  "abi": [
    {
      "inputs": [],
      "stateMutability": "nonpayable",
      "type": "constructor"
    },
    {
      "inputs": [
        {
          "internalType": "address",
          "name": "sender",
          "type": "address"
        },
        {
          "internalType": "uint256",
          "name": "tokenId",
          "type": "uint256"
        },
        {
          "internalType": "address",
          "name": "owner",
          "type": "address"
        }
      ],
      "name": "ERC721IncorrectOwner",
      "type": "error"
    },
    {
      "inputs": [
        {
          "internalType": "address",
          "name": "operator",
          "type": "address"
        },
        {
          "internalType": "uint256",
          "name": "tokenId",
          "type": "uint256"
        }
      ],
      "name": "ERC721InsufficientApproval",
      "type": "error"
    },
    {
      "inputs": [
        {
          "internalType": "address",
          "name": "approver",
          "type": "address"
        }
      ],
      "name": "ERC721InvalidApprover",
      "type": "error"
    },
    {
      "inputs": [
        {
          "internalType": "address",
          "name": "operator",
          "type": "address"
        }
      ],
      "name": "ERC721InvalidOperator",
      "type": "error"
    },
    {
      "inputs": [
        {
          "internalType": "address",
          "name": "owner",
          "type": "address"
        }
      ],
      "name": "ERC721InvalidOwner",
      "type": "error"
    },
    {
      "inputs": [
        {
          "internalType": "address",
          "name": "receiver",
          "type": "address"
        }
      ],
      "name": "ERC721InvalidReceiver",
      "type": "error"
    },
    {
      "inputs": [
        {
          "internalType": "address",
          "name": "sender",
          "type": "address"
        }
      ],
      "name": "ERC721InvalidSender",
      "type": "error"
    },
    {
      "inputs": [
        {
          "internalType": "uint256",
          "name": "tokenId",
          "type": "uint256"
        }
      ],
      "name": "ERC721NonexistentToken",
      "type": "error"
    },
    {
      "inputs": [
        {
          "internalType": "address",
          "name": "owner",
          "type": "address"
        }
      ],
      "name": "OwnableInvalidOwner",
      "type": "error"
    },
    {
      "inputs": [
        {
          "internalType": "address",
          "name": "account",
          "type": "address"
        }
      ],
      "name": "OwnableUnauthorizedAccount",
      "type": "error"
    },
    {
      "anonymous": false,
      "inputs": [
        {
          "indexed": true,
          "internalType": "address",
          "name": "owner",
          "type": "address"
        },
        {
          "indexed": true,
          "internalType": "address",
          "name": "approved",
          "type": "address"
        },
        {
          "indexed": true,
          "internalType": "uint256",
          "name": "tokenId",
          "type": "uint256"
        }
      ],
      "name": "Approval",
      "type": "event"
    },
    {
      "anonymous": false,
      "inputs": [
        {
          "indexed": true,
          "internalType": "address",
          "name": "owner",
          "type": "address"
        },
        {
          "indexed": true,
          "internalType": "address",
          "name": "operator",
          "type": "address"
        },
        {
          "indexed": false,
          "internalType": "bool",
          "name": "approved",
          "type": "bool"
        }
      ],
      "name": "ApprovalForAll",
      "type": "event"
    },
    {
      "anonymous": false,
      "inputs": [
        {
          "indexed": false,
          "internalType": "uint256",
          "name": "_fromTokenId",
          "type": "uint256"
        },
        {
          "indexed": false,
          "internalType": "uint256",
          "name": "_toTokenId",
          "type": "uint256"
        }
      ],
      "name": "BatchMetadataUpdate",
      "type": "event"
    },
    {
      "anonymous": false,
      "inputs": [
        {
          "indexed": true,
          "internalType": "uint256",
          "name": "winnerId",
          "type": "uint256"
        },
        {
          "indexed": true,
          "internalType": "uint256",
          "name": "loserId",
          "type": "uint256"
        }
      ],
      "name": "BattleResult",
      "type": "event"
    },
    {
      "anonymous": false,
      "inputs": [
        {
          "indexed": false,
          "internalType": "uint256",
          "name": "_tokenId",
          "type": "uint256"
        }
      ],
      "name": "MetadataUpdate",
      "type": "event"
    },
    {
      "anonymous": false,
      "inputs": [
        {
          "indexed": true,
          "internalType": "uint256",
          "name": "monsterId",
          "type": "uint256"
        },
        {
          "indexed": false,
          "internalType": "address",
          "name": "owner",
          "type": "address"
        }
      ],
      "name": "MonsterCreated",
      "type": "event"
    },
    {
      "anonymous": false,
      "inputs": [
        {
          "indexed": true,
          "internalType": "address",
          "name": "previousOwner",
          "type": "address"
        },
        {
          "indexed": true,
          "internalType": "address",
          "name": "newOwner",
          "type": "address"
        }
      ],
      "name": "OwnershipTransferred",
      "type": "event"
    },
    {
      "anonymous": false,
      "inputs": [
        {
          "indexed": true,
          "internalType": "address",
          "name": "from",
          "type": "address"
        },
        {
          "indexed": true,
          "internalType": "address",
          "name": "to",
          "type": "address"
        },
        {
          "indexed": true,
          "internalType": "uint256",
          "name": "tokenId",
          "type": "uint256"
        }
      ],
      "name": "Transfer",
      "type": "event"
    },
    {
      "inputs": [
        {
          "internalType": "address",
          "name": "to",
          "type": "address"
        },
        {
          "internalType": "uint256",
          "name": "tokenId",
          "type": "uint256"
        }
      ],
      "name": "approve",
      "outputs": [],
      "stateMutability": "nonpayable",
      "type": "function"
    },
    {
      "inputs": [
        {
          "internalType": "uint256",
          "name": "attackerId",
          "type": "uint256"
        },
        {
          "internalType": "uint256",
          "name": "defenderId",
          "type": "uint256"
        }
      ],
      "name": "attackMonster",
      "outputs": [],
      "stateMutability": "nonpayable",
      "type": "function"
    },
    {
      "inputs": [
        {
          "internalType": "address",
          "name": "owner",
          "type": "address"
        }
      ],
      "name": "balanceOf",
      "outputs": [
        {
          "internalType": "uint256",
          "name": "",
          "type": "uint256"
        }
      ],
      "stateMutability": "view",
      "type": "function"
    },
    {
      "inputs": [
        {
          "internalType": "uint256",
          "name": "health",
          "type": "uint256"
        },
        {
          "internalType": "uint256",
          "name": "mana",
          "type": "uint256"
        },
        {
          "internalType": "uint256",
          "name": "attack",
          "type": "uint256"
        },
        {
          "internalType": "uint256",
          "name": "defense",
          "type": "uint256"
        },
        {
          "internalType": "uint256",
          "name": "speed",
          "type": "uint256"
        },
        {
          "internalType": "string",
          "name": "uri",
          "type": "string"
        }
      ],
      "name": "createMonster",
      "outputs": [],
      "stateMutability": "nonpayable",
      "type": "function"
    },
    {
      "inputs": [
        {
          "internalType": "uint256",
          "name": "tokenId",
          "type": "uint256"
        }
      ],
      "name": "getApproved",
      "outputs": [
        {
          "internalType": "address",
          "name": "",
          "type": "address"
        }
      ],
      "stateMutability": "view",
      "type": "function"
    },
    {
      "inputs": [
        {
          "internalType": "uint256",
          "name": "monsterId",
          "type": "uint256"
        }
      ],
      "name": "getMonster",
      "outputs": [
        {
          "components": [
            {
              "internalType": "uint256",
              "name": "id",
              "type": "uint256"
            },
            {
              "internalType": "uint256",
              "name": "health",
              "type": "uint256"
            },
            {
              "internalType": "uint256",
              "name": "mana",
              "type": "uint256"
            },
            {
              "internalType": "uint256",
              "name": "attack",
              "type": "uint256"
            },
            {
              "internalType": "uint256",
              "name": "defense",
              "type": "uint256"
            },
            {
              "internalType": "uint256",
              "name": "speed",
              "type": "uint256"
            },
            {
              "internalType": "uint256",
              "name": "level",
              "type": "uint256"
            },
            {
              "internalType": "uint256",
              "name": "experience",
              "type": "uint256"
            },
            {
              "internalType": "string",
              "name": "uri",
              "type": "string"
            }
          ],
          "internalType": "struct Lock.Monster",
          "name": "",
          "type": "tuple"
        }
      ],
      "stateMutability": "view",
      "type": "function"
    },
    {
      "inputs": [
        {
          "internalType": "address",
          "name": "owner",
          "type": "address"
        },
        {
          "internalType": "address",
          "name": "operator",
          "type": "address"
        }
      ],
      "name": "isApprovedForAll",
      "outputs": [
        {
          "internalType": "bool",
          "name": "",
          "type": "bool"
        }
      ],
      "stateMutability": "view",
      "type": "function"
    },
    {
      "inputs": [
        {
          "internalType": "uint256",
          "name": "monsterId",
          "type": "uint256"
        }
      ],
      "name": "levelUp",
      "outputs": [],
      "stateMutability": "nonpayable",
      "type": "function"
    },
    {
      "inputs": [
        {
          "internalType": "uint256",
          "name": "",
          "type": "uint256"
        }
      ],
      "name": "monsters",
      "outputs": [
        {
          "internalType": "uint256",
          "name": "id",
          "type": "uint256"
        },
        {
          "internalType": "uint256",
          "name": "health",
          "type": "uint256"
        },
        {
          "internalType": "uint256",
          "name": "mana",
          "type": "uint256"
        },
        {
          "internalType": "uint256",
          "name": "attack",
          "type": "uint256"
        },
        {
          "internalType": "uint256",
          "name": "defense",
          "type": "uint256"
        },
        {
          "internalType": "uint256",
          "name": "speed",
          "type": "uint256"
        },
        {
          "internalType": "uint256",
          "name": "level",
          "type": "uint256"
        },
        {
          "internalType": "uint256",
          "name": "experience",
          "type": "uint256"
        },
        {
          "internalType": "string",
          "name": "uri",
          "type": "string"
        }
      ],
      "stateMutability": "view",
      "type": "function"
    },
    {
      "inputs": [],
      "name": "name",
      "outputs": [
        {
          "internalType": "string",
          "name": "",
          "type": "string"
        }
      ],
      "stateMutability": "view",
      "type": "function"
    },
    {
      "inputs": [],
      "name": "owner",
      "outputs": [
        {
          "internalType": "address",
          "name": "",
          "type": "address"
        }
      ],
      "stateMutability": "view",
      "type": "function"
    },
    {
      "inputs": [
        {
          "internalType": "uint256",
          "name": "tokenId",
          "type": "uint256"
        }
      ],
      "name": "ownerOf",
      "outputs": [
        {
          "internalType": "address",
          "name": "",
          "type": "address"
        }
      ],
      "stateMutability": "view",
      "type": "function"
    },
    {
      "inputs": [],
      "name": "renounceOwnership",
      "outputs": [],
      "stateMutability": "nonpayable",
      "type": "function"
    },
    {
      "inputs": [
        {
          "internalType": "address",
          "name": "from",
          "type": "address"
        },
        {
          "internalType": "address",
          "name": "to",
          "type": "address"
        },
        {
          "internalType": "uint256",
          "name": "tokenId",
          "type": "uint256"
        }
      ],
      "name": "safeTransferFrom",
      "outputs": [],
      "stateMutability": "nonpayable",
      "type": "function"
    },
    {
      "inputs": [
        {
          "internalType": "address",
          "name": "from",
          "type": "address"
        },
        {
          "internalType": "address",
          "name": "to",
          "type": "address"
        },
        {
          "internalType": "uint256",
          "name": "tokenId",
          "type": "uint256"
        },
        {
          "internalType": "bytes",
          "name": "data",
          "type": "bytes"
        }
      ],
      "name": "safeTransferFrom",
      "outputs": [],
      "stateMutability": "nonpayable",
      "type": "function"
    },
    {
      "inputs": [
        {
          "internalType": "address",
          "name": "operator",
          "type": "address"
        },
        {
          "internalType": "bool",
          "name": "approved",
          "type": "bool"
        }
      ],
      "name": "setApprovalForAll",
      "outputs": [],
      "stateMutability": "nonpayable",
      "type": "function"
    },
    {
      "inputs": [
        {
          "internalType": "bytes4",
          "name": "interfaceId",
          "type": "bytes4"
        }
      ],
      "name": "supportsInterface",
      "outputs": [
        {
          "internalType": "bool",
          "name": "",
          "type": "bool"
        }
      ],
      "stateMutability": "view",
      "type": "function"
    },
    {
      "inputs": [],
      "name": "symbol",
      "outputs": [
        {
          "internalType": "string",
          "name": "",
          "type": "string"
        }
      ],
      "stateMutability": "view",
      "type": "function"
    },
    {
      "inputs": [
        {
          "internalType": "uint256",
          "name": "tokenId",
          "type": "uint256"
        }
      ],
      "name": "tokenURI",
      "outputs": [
        {
          "internalType": "string",
          "name": "",
          "type": "string"
        }
      ],
      "stateMutability": "view",
      "type": "function"
    },
    {
      "inputs": [],
      "name": "totalSupply",
      "outputs": [
        {
          "internalType": "uint256",
          "name": "",
          "type": "uint256"
        }
      ],
      "stateMutability": "view",
      "type": "function"
    },
    {
      "inputs": [
        {
          "internalType": "address",
          "name": "from",
          "type": "address"
        },
        {
          "internalType": "address",
          "name": "to",
          "type": "address"
        },
        {
          "internalType": "uint256",
          "name": "tokenId",
          "type": "uint256"
        }
      ],
      "name": "transferFrom",
      "outputs": [],
      "stateMutability": "nonpayable",
      "type": "function"
    },
    {
      "inputs": [
        {
          "internalType": "address",
          "name": "newOwner",
          "type": "address"
        }
      ],
      "name": "transferOwnership",
      "outputs": [],
      "stateMutability": "nonpayable",
      "type": "function"
    }
  ],
  "bytecode": "0x60806040523480156200001157600080fd5b50336040518060400160405280600981526020017f43727970746f4d6f6e00000000000000000000000000000000000000000000008152506040518060400160405280600481526020017f434d4f4e00000000000000000000000000000000000000000000000000000000815250816000908162000090919062000472565b508060019081620000a2919062000472565b505050600073ffffffffffffffffffffffffffffffffffffffff168173ffffffffffffffffffffffffffffffffffffffff16036200011a5760006040517f1e4fbdf70000000000000000000000000000000000000000000000000000000081526004016200011191906200059e565b60405180910390fd5b6200012b816200013260201b60201c565b50620005bb565b6000600760009054906101000a900473ffffffffffffffffffffffffffffffffffffffff16905081600760006101000a81548173ffffffffffffffffffffffffffffffffffffffff021916908373ffffffffffffffffffffffffffffffffffffffff1602179055508173ffffffffffffffffffffffffffffffffffffffff168173ffffffffffffffffffffffffffffffffffffffff167f8be0079c531659141344cd1fd0a4f28419497f9722a3daafe3b4186f6b6457e060405160405180910390a35050565b600081519050919050565b7f4e487b7100000000000000000000000000000000000000000000000000000000600052604160045260246000fd5b7f4e487b7100000000000000000000000000000000000000000000000000000000600052602260045260246000fd5b600060028204905060018216806200027a57607f821691505b60208210810362000290576200028f62000232565b5b50919050565b60008190508160005260206000209050919050565b60006020601f8301049050919050565b600082821b905092915050565b600060088302620002fa7fffffffffffffffffffffffffffffffffffffffffffffffffffffffffffffffff82620002bb565b620003068683620002bb565b95508019841693508086168417925050509392505050565b6000819050919050565b6000819050919050565b6000620003536200034d62000347846200031e565b62000328565b6200031e565b9050919050565b6000819050919050565b6200036f8362000332565b620003876200037e826200035a565b848454620002c8565b825550505050565b600090565b6200039e6200038f565b620003ab81848462000364565b505050565b5b81811015620003d357620003c760008262000394565b600181019050620003b1565b5050565b601f8211156200042257620003ec8162000296565b620003f784620002ab565b8101602085101562000407578190505b6200041f6200041685620002ab565b830182620003b0565b50505b505050565b600082821c905092915050565b6000620004476000198460080262000427565b1980831691505092915050565b600062000462838362000434565b9150826002028217905092915050565b6200047d82620001f8565b67ffffffffffffffff81111562000499576200049862000203565b5b620004a5825462000261565b620004b2828285620003d7565b600060209050601f831160018114620004ea5760008415620004d5578287015190505b620004e1858262000454565b86555062000551565b601f198416620004fa8662000296565b60005b828110156200052457848901518255600182019150602085019450602081019050620004fd565b8683101562000544578489015162000540601f89168262000434565b8355505b6001600288020188555050505b505050505050565b600073ffffffffffffffffffffffffffffffffffffffff82169050919050565b6000620005868262000559565b9050919050565b620005988162000579565b82525050565b6000602082019050620005b560008301846200058d565b92915050565b6134ef80620005cb6000396000f3fe608060405234801561001057600080fd5b50600436106101425760003560e01c8063715018a6116100b8578063b618fce21161007c578063b618fce214610361578063b88d4fde1461037d578063c0576b7314610399578063c87b56dd146103d1578063e985e9c514610401578063f2fde38b1461043157610142565b8063715018a6146102e35780638da5cb5b146102ed57806395d89b411461030b5780639764665d14610329578063a22cb4651461034557610142565b806318160ddd1161010a57806318160ddd146101fd57806323b872dd1461021b57806342842e0e1461023757806362fb6fe1146102535780636352211e1461028357806370a08231146102b357610142565b806301ffc9a71461014757806306fdde0314610177578063081812fc14610195578063095ea7b3146101c55780630ce90ec2146101e1575b600080fd5b610161600480360381019061015c91906123c7565b61044d565b60405161016e919061240f565b60405180910390f35b61017f6104ae565b60405161018c91906124ba565b60405180910390f35b6101af60048036038101906101aa9190612512565b610540565b6040516101bc9190612580565b60405180910390f35b6101df60048036038101906101da91906125c7565b61055c565b005b6101fb60048036038101906101f69190612512565b610572565b005b610205610721565b6040516102129190612616565b60405180910390f35b61023560048036038101906102309190612631565b61072e565b005b610251600480360381019061024c9190612631565b610830565b005b61026d60048036038101906102689190612512565b610850565b60405161027a91906127a2565b60405180910390f35b61029d60048036038101906102989190612512565b6109b6565b6040516102aa9190612580565b60405180910390f35b6102cd60048036038101906102c891906127c4565b6109c8565b6040516102da9190612616565b60405180910390f35b6102eb610a82565b005b6102f5610a96565b6040516103029190612580565b60405180910390f35b610313610ac0565b60405161032091906124ba565b60405180910390f35b610343600480360381019061033e91906127f1565b610b52565b005b61035f600480360381019061035a919061285d565b610dd1565b005b61037b600480360381019061037691906129d2565b610de7565b005b61039760048036038101906103929190612b1c565b610f24565b005b6103b360048036038101906103ae9190612512565b610f41565b6040516103c899989796959493929190612b9f565b60405180910390f35b6103eb60048036038101906103e69190612512565b611027565b6040516103f891906124ba565b60405180910390f35b61041b60048036038101906104169190612c33565b61113a565b604051610428919061240f565b60405180910390f35b61044b600480360381019061044691906127c4565b6111ce565b005b6000634906490660e01b7bffffffffffffffffffffffffffffffffffffffffffffffffffffffff1916827bffffffffffffffffffffffffffffffffffffffffffffffffffffffff191614806104a757506104a682611254565b5b9050919050565b6060600080546104bd90612ca2565b80601f01602080910402602001604051908101604052809291908181526020018280546104e990612ca2565b80156105365780601f1061050b57610100808354040283529160200191610536565b820191906000526020600020905b81548152906001019060200180831161051957829003601f168201915b5050505050905090565b600061054b82611336565b50610555826113be565b9050919050565b61056e82826105696113fb565b611403565b5050565b3373ffffffffffffffffffffffffffffffffffffffff16610592826109b6565b73ffffffffffffffffffffffffffffffffffffffff16146105e8576040517f08c379a00000000000000000000000000000000000000000000000000000000081526004016105df90612d45565b60405180910390fd5b6000600882815481106105fe576105fd612d65565b5b906000526020600020906009020190506000606482600601546106219190612dc3565b9050808260070154101561066a576040517f08c379a000000000000000000000000000000000000000000000000000000000815260040161066190612e77565b60405180910390fd5b600182600601600082825461067f9190612e97565b92505081905550600a82600101600082825461069b9190612e97565b9250508190555060058260020160008282546106b79190612e97565b9250508190555060058260030160008282546106d39190612e97565b9250508190555060058260040160008282546106ef9190612e97565b92505081905550600182600501600082825461070b9190612e97565b9250508190555060008260070181905550505050565b6000600880549050905090565b600073ffffffffffffffffffffffffffffffffffffffff168273ffffffffffffffffffffffffffffffffffffffff16036107a05760006040517f64a0ae920000000000000000000000000000000000000000000000000000000081526004016107979190612580565b60405180910390fd5b60006107b483836107af6113fb565b611415565b90508373ffffffffffffffffffffffffffffffffffffffff168173ffffffffffffffffffffffffffffffffffffffff161461082a578382826040517f64283d7b00000000000000000000000000000000000000000000000000000000815260040161082193929190612ecb565b60405180910390fd5b50505050565b61084b83838360405180602001604052806000815250610f24565b505050565b61085861230f565b600880549050821061089f576040517f08c379a000000000000000000000000000000000000000000000000000000000815260040161089690612f4e565b60405180910390fd5b600882815481106108b3576108b2612d65565b5b906000526020600020906009020160405180610120016040529081600082015481526020016001820154815260200160028201548152602001600382015481526020016004820154815260200160058201548152602001600682015481526020016007820154815260200160088201805461092d90612ca2565b80601f016020809104026020016040519081016040528092919081815260200182805461095990612ca2565b80156109a65780601f1061097b576101008083540402835291602001916109a6565b820191906000526020600020905b81548152906001019060200180831161098957829003601f168201915b5050505050815250509050919050565b60006109c182611336565b9050919050565b60008073ffffffffffffffffffffffffffffffffffffffff168273ffffffffffffffffffffffffffffffffffffffff1603610a3b5760006040517f89c62b64000000000000000000000000000000000000000000000000000000008152600401610a329190612580565b60405180910390fd5b600360008373ffffffffffffffffffffffffffffffffffffffff1673ffffffffffffffffffffffffffffffffffffffff168152602001908152602001600020549050919050565b610a8a61162f565b610a9460006116b6565b565b6000600760009054906101000a900473ffffffffffffffffffffffffffffffffffffffff16905090565b606060018054610acf90612ca2565b80601f0160208091040260200160405190810160405280929190818152602001828054610afb90612ca2565b8015610b485780601f10610b1d57610100808354040283529160200191610b48565b820191906000526020600020905b815481529060010190602001808311610b2b57829003601f168201915b5050505050905090565b3373ffffffffffffffffffffffffffffffffffffffff16610b72836109b6565b73ffffffffffffffffffffffffffffffffffffffff1614610bc8576040517f08c379a0000000000000000000000000000000000000000000000000000000008152600401610bbf90612fe0565b60405180910390fd5b600073ffffffffffffffffffffffffffffffffffffffff16610be9826109b6565b73ffffffffffffffffffffffffffffffffffffffff1603610c3f576040517f08c379a0000000000000000000000000000000000000000000000000000000008152600401610c369061304c565b60405180910390fd5b600060088381548110610c5557610c54612d65565b5b90600052602060002090600902019050600060088381548110610c7b57610c7a612d65565b5b90600052602060002090600902019050806004015482600301541115610d355780600401548260030154610caf919061306c565b816001015411610cc0576000610ce4565b80600401548260030154610cd4919061306c565b8160010154610ce3919061306c565b5b816001018190555082847f37fdf7cda6ec1c848e98866fe5e1f781b2b5976a1d79c7770394e65503ce92af60405160405180910390a36000816001015403610d3057610d2f8361177c565b5b610dcb565b81600301548160040154610d49919061306c565b826001015411610d5a576000610d7e565b81600301548160040154610d6e919061306c565b8260010154610d7d919061306c565b5b826001018190555083837f37fdf7cda6ec1c848e98866fe5e1f781b2b5976a1d79c7770394e65503ce92af60405160405180910390a36000826001015403610dca57610dc98461177c565b5b5b50505050565b610de3610ddc6113fb565b8383611802565b5050565b610def61162f565b6000600880549050905060086040518061012001604052808381526020018981526020018881526020018781526020018681526020018581526020016001815260200160008152602001848152509080600181540180825580915050600190039060005260206000209060090201600090919091909150600082015181600001556020820151816001015560408201518160020155606082015181600301556080820151816004015560a0820151816005015560c0820151816006015560e08201518160070155610100820151816008019081610ecc919061324c565b505050610ed93382611971565b610ee38183611a6a565b807faa413f381b0a68cad808ff9ac4bb394ca02008f65499457c28193f5180ffae5e33604051610f139190612580565b60405180910390a250505050505050565b610f2f84848461072e565b610f3b84848484611ac6565b50505050565b60088181548110610f5157600080fd5b9060005260206000209060090201600091509050806000015490806001015490806002015490806003015490806004015490806005015490806006015490806007015490806008018054610fa490612ca2565b80601f0160208091040260200160405190810160405280929190818152602001828054610fd090612ca2565b801561101d5780601f10610ff25761010080835404028352916020019161101d565b820191906000526020600020905b81548152906001019060200180831161100057829003601f168201915b5050505050905089565b606061103282611336565b50600060066000848152602001908152602001600020805461105390612ca2565b80601f016020809104026020016040519081016040528092919081815260200182805461107f90612ca2565b80156110cc5780601f106110a1576101008083540402835291602001916110cc565b820191906000526020600020905b8154815290600101906020018083116110af57829003601f168201915b5050505050905060006110dd611c7d565b905060008151036110f2578192505050611135565b60008251111561112757808260405160200161110f92919061335a565b60405160208183030381529060405292505050611135565b61113084611c94565b925050505b919050565b6000600560008473ffffffffffffffffffffffffffffffffffffffff1673ffffffffffffffffffffffffffffffffffffffff16815260200190815260200160002060008373ffffffffffffffffffffffffffffffffffffffff1673ffffffffffffffffffffffffffffffffffffffff16815260200190815260200160002060009054906101000a900460ff16905092915050565b6111d661162f565b600073ffffffffffffffffffffffffffffffffffffffff168173ffffffffffffffffffffffffffffffffffffffff16036112485760006040517f1e4fbdf700000000000000000000000000000000000000000000000000000000815260040161123f9190612580565b60405180910390fd5b611251816116b6565b50565b60007f80ac58cd000000000000000000000000000000000000000000000000000000007bffffffffffffffffffffffffffffffffffffffffffffffffffffffff1916827bffffffffffffffffffffffffffffffffffffffffffffffffffffffff1916148061131f57507f5b5e139f000000000000000000000000000000000000000000000000000000007bffffffffffffffffffffffffffffffffffffffffffffffffffffffff1916827bffffffffffffffffffffffffffffffffffffffffffffffffffffffff1916145b8061132f575061132e82611cfd565b5b9050919050565b60008061134283611d67565b9050600073ffffffffffffffffffffffffffffffffffffffff168173ffffffffffffffffffffffffffffffffffffffff16036113b557826040517f7e2732890000000000000000000000000000000000000000000000000000000081526004016113ac9190612616565b60405180910390fd5b80915050919050565b60006004600083815260200190815260200160002060009054906101000a900473ffffffffffffffffffffffffffffffffffffffff169050919050565b600033905090565b6114108383836001611da4565b505050565b60008061142184611d67565b9050600073ffffffffffffffffffffffffffffffffffffffff168373ffffffffffffffffffffffffffffffffffffffff161461146357611462818486611f69565b5b600073ffffffffffffffffffffffffffffffffffffffff168173ffffffffffffffffffffffffffffffffffffffff16146114f4576114a5600085600080611da4565b6001600360008373ffffffffffffffffffffffffffffffffffffffff1673ffffffffffffffffffffffffffffffffffffffff168152602001908152602001600020600082825403925050819055505b600073ffffffffffffffffffffffffffffffffffffffff168573ffffffffffffffffffffffffffffffffffffffff1614611577576001600360008773ffffffffffffffffffffffffffffffffffffffff1673ffffffffffffffffffffffffffffffffffffffff168152602001908152602001600020600082825401925050819055505b846002600086815260200190815260200160002060006101000a81548173ffffffffffffffffffffffffffffffffffffffff021916908373ffffffffffffffffffffffffffffffffffffffff160217905550838573ffffffffffffffffffffffffffffffffffffffff168273ffffffffffffffffffffffffffffffffffffffff167fddf252ad1be2c89b69c2b068fc378daa952ba7f163c4a11628f55a4df523b3ef60405160405180910390a4809150509392505050565b6116376113fb565b73ffffffffffffffffffffffffffffffffffffffff16611655610a96565b73ffffffffffffffffffffffffffffffffffffffff16146116b4576116786113fb565b6040517f118cdaa70000000000000000000000000000000000000000000000000000000081526004016116ab9190612580565b60405180910390fd5b565b6000600760009054906101000a900473ffffffffffffffffffffffffffffffffffffffff16905081600760006101000a81548173ffffffffffffffffffffffffffffffffffffffff021916908373ffffffffffffffffffffffffffffffffffffffff1602179055508173ffffffffffffffffffffffffffffffffffffffff168173ffffffffffffffffffffffffffffffffffffffff167f8be0079c531659141344cd1fd0a4f28419497f9722a3daafe3b4186f6b6457e060405160405180910390a35050565b600061178b6000836000611415565b9050600073ffffffffffffffffffffffffffffffffffffffff168173ffffffffffffffffffffffffffffffffffffffff16036117fe57816040517f7e2732890000000000000000000000000000000000000000000000000000000081526004016117f59190612616565b60405180910390fd5b5050565b600073ffffffffffffffffffffffffffffffffffffffff168273ffffffffffffffffffffffffffffffffffffffff160361187357816040517f5b08ba1800000000000000000000000000000000000000000000000000000000815260040161186a9190612580565b60405180910390fd5b80600560008573ffffffffffffffffffffffffffffffffffffffff1673ffffffffffffffffffffffffffffffffffffffff16815260200190815260200160002060008473ffffffffffffffffffffffffffffffffffffffff1673ffffffffffffffffffffffffffffffffffffffff16815260200190815260200160002060006101000a81548160ff0219169083151502179055508173ffffffffffffffffffffffffffffffffffffffff168373ffffffffffffffffffffffffffffffffffffffff167f17307eab39ab6107e8899845ad3d59bd9653f200f220920489ca2b5937696c3183604051611964919061240f565b60405180910390a3505050565b600073ffffffffffffffffffffffffffffffffffffffff168273ffffffffffffffffffffffffffffffffffffffff16036119e35760006040517f64a0ae920000000000000000000000000000000000000000000000000000000081526004016119da9190612580565b60405180910390fd5b60006119f183836000611415565b9050600073ffffffffffffffffffffffffffffffffffffffff168173ffffffffffffffffffffffffffffffffffffffff1614611a655760006040517f73c6ac6e000000000000000000000000000000000000000000000000000000008152600401611a5c9190612580565b60405180910390fd5b505050565b80600660008481526020019081526020016000209081611a8a919061324c565b507ff8e1a15aba9398e019f0b49df1a4fde98ee17ae345cb5f6b5e2c27f5033e8ce782604051611aba9190612616565b60405180910390a15050565b60008373ffffffffffffffffffffffffffffffffffffffff163b1115611c77578273ffffffffffffffffffffffffffffffffffffffff1663150b7a02611b0a6113fb565b8685856040518563ffffffff1660e01b8152600401611b2c94939291906133d3565b6020604051808303816000875af1925050508015611b6857506040513d601f19601f82011682018060405250810190611b659190613434565b60015b611bec573d8060008114611b98576040519150601f19603f3d011682016040523d82523d6000602084013e611b9d565b606091505b506000815103611be457836040517f64a0ae92000000000000000000000000000000000000000000000000000000008152600401611bdb9190612580565b60405180910390fd5b805181602001fd5b63150b7a0260e01b7bffffffffffffffffffffffffffffffffffffffffffffffffffffffff1916817bffffffffffffffffffffffffffffffffffffffffffffffffffffffff191614611c7557836040517f64a0ae92000000000000000000000000000000000000000000000000000000008152600401611c6c9190612580565b60405180910390fd5b505b50505050565b606060405180602001604052806000815250905090565b6060611c9f82611336565b506000611caa611c7d565b90506000815111611cca5760405180602001604052806000815250611cf5565b80611cd48461202d565b604051602001611ce592919061335a565b6040516020818303038152906040525b915050919050565b60007f01ffc9a7000000000000000000000000000000000000000000000000000000007bffffffffffffffffffffffffffffffffffffffffffffffffffffffff1916827bffffffffffffffffffffffffffffffffffffffffffffffffffffffff1916149050919050565b60006002600083815260200190815260200160002060009054906101000a900473ffffffffffffffffffffffffffffffffffffffff169050919050565b8080611ddd5750600073ffffffffffffffffffffffffffffffffffffffff168273ffffffffffffffffffffffffffffffffffffffff1614155b15611f11576000611ded84611336565b9050600073ffffffffffffffffffffffffffffffffffffffff168373ffffffffffffffffffffffffffffffffffffffff1614158015611e5857508273ffffffffffffffffffffffffffffffffffffffff168173ffffffffffffffffffffffffffffffffffffffff1614155b8015611e6b5750611e69818461113a565b155b15611ead57826040517fa9fbf51f000000000000000000000000000000000000000000000000000000008152600401611ea49190612580565b60405180910390fd5b8115611f0f57838573ffffffffffffffffffffffffffffffffffffffff168273ffffffffffffffffffffffffffffffffffffffff167f8c5be1e5ebec7d5bd14f71427d1e84f3dd0314c0f7b2291e5b200ac8c7c3b92560405160405180910390a45b505b836004600085815260200190815260200160002060006101000a81548173ffffffffffffffffffffffffffffffffffffffff021916908373ffffffffffffffffffffffffffffffffffffffff16021790555050505050565b611f748383836120fb565b61202857600073ffffffffffffffffffffffffffffffffffffffff168373ffffffffffffffffffffffffffffffffffffffff1603611fe957806040517f7e273289000000000000000000000000000000000000000000000000000000008152600401611fe09190612616565b60405180910390fd5b81816040517f177e802f00000000000000000000000000000000000000000000000000000000815260040161201f929190613461565b60405180910390fd5b505050565b60606000600161203c846121bc565b01905060008167ffffffffffffffff81111561205b5761205a6128a7565b5b6040519080825280601f01601f19166020018201604052801561208d5781602001600182028036833780820191505090505b509050600082602001820190505b6001156120f0578080600190039150507f3031323334353637383961626364656600000000000000000000000000000000600a86061a8153600a85816120e4576120e361348a565b5b0494506000850361209b575b819350505050919050565b60008073ffffffffffffffffffffffffffffffffffffffff168373ffffffffffffffffffffffffffffffffffffffff16141580156121b357508273ffffffffffffffffffffffffffffffffffffffff168473ffffffffffffffffffffffffffffffffffffffff1614806121745750612173848461113a565b5b806121b257508273ffffffffffffffffffffffffffffffffffffffff1661219a836113be565b73ffffffffffffffffffffffffffffffffffffffff16145b5b90509392505050565b600080600090507a184f03e93ff9f4daa797ed6e38ed64bf6a1f010000000000000000831061221a577a184f03e93ff9f4daa797ed6e38ed64bf6a1f01000000000000000083816122105761220f61348a565b5b0492506040810190505b6d04ee2d6d415b85acef81000000008310612257576d04ee2d6d415b85acef8100000000838161224d5761224c61348a565b5b0492506020810190505b662386f26fc10000831061228657662386f26fc10000838161227c5761227b61348a565b5b0492506010810190505b6305f5e10083106122af576305f5e10083816122a5576122a461348a565b5b0492506008810190505b61271083106122d45761271083816122ca576122c961348a565b5b0492506004810190505b606483106122f757606483816122ed576122ec61348a565b5b0492506002810190505b600a8310612306576001810190505b80915050919050565b6040518061012001604052806000815260200160008152602001600081526020016000815260200160008152602001600081526020016000815260200160008152602001606081525090565b6000604051905090565b600080fd5b600080fd5b60007fffffffff0000000000000000000000000000000000000000000000000000000082169050919050565b6123a48161236f565b81146123af57600080fd5b50565b6000813590506123c18161239b565b92915050565b6000602082840312156123dd576123dc612365565b5b60006123eb848285016123b2565b91505092915050565b60008115159050919050565b612409816123f4565b82525050565b60006020820190506124246000830184612400565b92915050565b600081519050919050565b600082825260208201905092915050565b60005b83811015612464578082015181840152602081019050612449565b60008484015250505050565b6000601f19601f8301169050919050565b600061248c8261242a565b6124968185612435565b93506124a6818560208601612446565b6124af81612470565b840191505092915050565b600060208201905081810360008301526124d48184612481565b905092915050565b6000819050919050565b6124ef816124dc565b81146124fa57600080fd5b50565b60008135905061250c816124e6565b92915050565b60006020828403121561252857612527612365565b5b6000612536848285016124fd565b91505092915050565b600073ffffffffffffffffffffffffffffffffffffffff82169050919050565b600061256a8261253f565b9050919050565b61257a8161255f565b82525050565b60006020820190506125956000830184612571565b92915050565b6125a48161255f565b81146125af57600080fd5b50565b6000813590506125c18161259b565b92915050565b600080604083850312156125de576125dd612365565b5b60006125ec858286016125b2565b92505060206125fd858286016124fd565b9150509250929050565b612610816124dc565b82525050565b600060208201905061262b6000830184612607565b92915050565b60008060006060848603121561264a57612649612365565b5b6000612658868287016125b2565b9350506020612669868287016125b2565b925050604061267a868287016124fd565b9150509250925092565b61268d816124dc565b82525050565b600082825260208201905092915050565b60006126af8261242a565b6126b98185612693565b93506126c9818560208601612446565b6126d281612470565b840191505092915050565b6000610120830160008301516126f66000860182612684565b5060208301516127096020860182612684565b50604083015161271c6040860182612684565b50606083015161272f6060860182612684565b5060808301516127426080860182612684565b5060a083015161275560a0860182612684565b5060c083015161276860c0860182612684565b5060e083015161277b60e0860182612684565b5061010083015184820361010086015261279582826126a4565b9150508091505092915050565b600060208201905081810360008301526127bc81846126dd565b905092915050565b6000602082840312156127da576127d9612365565b5b60006127e8848285016125b2565b91505092915050565b6000806040838503121561280857612807612365565b5b6000612816858286016124fd565b9250506020612827858286016124fd565b9150509250929050565b61283a816123f4565b811461284557600080fd5b50565b60008135905061285781612831565b92915050565b6000806040838503121561287457612873612365565b5b6000612882858286016125b2565b925050602061289385828601612848565b9150509250929050565b600080fd5b600080fd5b7f4e487b7100000000000000000000000000000000000000000000000000000000600052604160045260246000fd5b6128df82612470565b810181811067ffffffffffffffff821117156128fe576128fd6128a7565b5b80604052505050565b600061291161235b565b905061291d82826128d6565b919050565b600067ffffffffffffffff82111561293d5761293c6128a7565b5b61294682612470565b9050602081019050919050565b82818337600083830152505050565b600061297561297084612922565b612907565b905082815260208101848484011115612991576129906128a2565b5b61299c848285612953565b509392505050565b600082601f8301126129b9576129b861289d565b5b81356129c9848260208601612962565b91505092915050565b60008060008060008060c087890312156129ef576129ee612365565b5b60006129fd89828a016124fd565b9650506020612a0e89828a016124fd565b9550506040612a1f89828a016124fd565b9450506060612a3089828a016124fd565b9350506080612a4189828a016124fd565b92505060a087013567ffffffffffffffff811115612a6257612a6161236a565b5b612a6e89828a016129a4565b9150509295509295509295565b600067ffffffffffffffff821115612a9657612a956128a7565b5b612a9f82612470565b9050602081019050919050565b6000612abf612aba84612a7b565b612907565b905082815260208101848484011115612adb57612ada6128a2565b5b612ae6848285612953565b509392505050565b600082601f830112612b0357612b0261289d565b5b8135612b13848260208601612aac565b91505092915050565b60008060008060808587031215612b3657612b35612365565b5b6000612b44878288016125b2565b9450506020612b55878288016125b2565b9350506040612b66878288016124fd565b925050606085013567ffffffffffffffff811115612b8757612b8661236a565b5b612b9387828801612aee565b91505092959194509250565b600061012082019050612bb5600083018c612607565b612bc2602083018b612607565b612bcf604083018a612607565b612bdc6060830189612607565b612be96080830188612607565b612bf660a0830187612607565b612c0360c0830186612607565b612c1060e0830185612607565b818103610100830152612c238184612481565b90509a9950505050505050505050565b60008060408385031215612c4a57612c49612365565b5b6000612c58858286016125b2565b9250506020612c69858286016125b2565b9150509250929050565b7f4e487b7100000000000000000000000000000000000000000000000000000000600052602260045260246000fd5b60006002820490506001821680612cba57607f821691505b602082108103612ccd57612ccc612c73565b5b50919050565b7f596f75206d757374206f776e20746865206d6f6e7374657220746f206c65766560008201527f6c2069742075702e000000000000000000000000000000000000000000000000602082015250565b6000612d2f602883612435565b9150612d3a82612cd3565b604082019050919050565b60006020820190508181036000830152612d5e81612d22565b9050919050565b7f4e487b7100000000000000000000000000000000000000000000000000000000600052603260045260246000fd5b7f4e487b7100000000000000000000000000000000000000000000000000000000600052601160045260246000fd5b6000612dce826124dc565b9150612dd9836124dc565b9250828202612de7816124dc565b91508282048414831517612dfe57612dfd612d94565b5b5092915050565b7f4e6f7420656e6f75676820657870657269656e636520746f206c6576656c207560008201527f702e000000000000000000000000000000000000000000000000000000000000602082015250565b6000612e61602283612435565b9150612e6c82612e05565b604082019050919050565b60006020820190508181036000830152612e9081612e54565b9050919050565b6000612ea2826124dc565b9150612ead836124dc565b9250828201905080821115612ec557612ec4612d94565b5b92915050565b6000606082019050612ee06000830186612571565b612eed6020830185612607565b612efa6040830184612571565b949350505050565b7f4d6f6e7374657220646f6573206e6f742065786973742e000000000000000000600082015250565b6000612f38601783612435565b9150612f4382612f02565b602082019050919050565b60006020820190508181036000830152612f6781612f2b565b9050919050565b7f596f75206d757374206f776e20746865206d6f6e7374657220746f20636f6d6d60008201527f616e642069742e00000000000000000000000000000000000000000000000000602082015250565b6000612fca602783612435565b9150612fd582612f6e565b604082019050919050565b60006020820190508181036000830152612ff981612fbd565b9050919050565b7f446566656e646572206d7573742065786973742e000000000000000000000000600082015250565b6000613036601483612435565b915061304182613000565b602082019050919050565b6000602082019050818103600083015261306581613029565b9050919050565b6000613077826124dc565b9150613082836124dc565b925082820390508181111561309a57613099612d94565b5b92915050565b60008190508160005260206000209050919050565b60006020601f8301049050919050565b600082821b905092915050565b6000600883026131027fffffffffffffffffffffffffffffffffffffffffffffffffffffffffffffffff826130c5565b61310c86836130c5565b95508019841693508086168417925050509392505050565b6000819050919050565b600061314961314461313f846124dc565b613124565b6124dc565b9050919050565b6000819050919050565b6131638361312e565b61317761316f82613150565b8484546130d2565b825550505050565b600090565b61318c61317f565b61319781848461315a565b505050565b5b818110156131bb576131b0600082613184565b60018101905061319d565b5050565b601f821115613200576131d1816130a0565b6131da846130b5565b810160208510156131e9578190505b6131fd6131f5856130b5565b83018261319c565b50505b505050565b600082821c905092915050565b600061322360001984600802613205565b1980831691505092915050565b600061323c8383613212565b9150826002028217905092915050565b6132558261242a565b67ffffffffffffffff81111561326e5761326d6128a7565b5b6132788254612ca2565b6132838282856131bf565b600060209050601f8311600181146132b657600084156132a4578287015190505b6132ae8582613230565b865550613316565b601f1984166132c4866130a0565b60005b828110156132ec578489015182556001820191506020850194506020810190506132c7565b868310156133095784890151613305601f891682613212565b8355505b6001600288020188555050505b505050505050565b600081905092915050565b60006133348261242a565b61333e818561331e565b935061334e818560208601612446565b80840191505092915050565b60006133668285613329565b91506133728284613329565b91508190509392505050565b600081519050919050565b600082825260208201905092915050565b60006133a58261337e565b6133af8185613389565b93506133bf818560208601612446565b6133c881612470565b840191505092915050565b60006080820190506133e86000830187612571565b6133f56020830186612571565b6134026040830185612607565b8181036060830152613414818461339a565b905095945050505050565b60008151905061342e8161239b565b92915050565b60006020828403121561344a57613449612365565b5b60006134588482850161341f565b91505092915050565b60006040820190506134766000830185612571565b6134836020830184612607565b9392505050565b7f4e487b7100000000000000000000000000000000000000000000000000000000600052601260045260246000fdfea26469706673582212207db9317837f7fc814cbda5459864e0ed04f14a457f3167a127817130eae98b3064736f6c63430008180033",
  "linkReferences": {},
  "deployedLinkReferences": {}
}